{
  "transactions": [
    {
      "hash": "0xf9c40fc14456d92fa69b6d376cfa3ba18eae751a0f692c36ca1ab0353c6d16e5",
      "transactionType": "CALL",
      "contractName": null,
      "contractAddress": "0x4F12D5D6b380a839efC3428e7B7B4EBcFd04E5DD",
      "function": "setTrustedRemote(uint16,bytes)",
      "arguments": [
        "10102 \u001b[2;49;39m[1.01e4]\u001b[0m",
        "0x4f12d5d6b380a839efc3428e7b7b4ebcfd04e5dd4f12d5d6b380a839efc3428e7b7b4ebcfd04e5dd"
      ],
      "rpc": "https://goerli.infura.io/v3/2bbee4e3b0b3410dac5e8e061d56266d",
      "transaction": {
        "type": "0x02",
        "from": "0xfcb5320ad1c7c5221709a2d25badcb64b1fff860",
        "to": "0x4f12d5d6b380a839efc3428e7b7b4ebcfd04e5dd",
        "gas": "0x23c07",
        "value": "0x0",
        "data": "0xeb8d72b70000000000000000000000000000000000000000000000000000000000002776000000000000000000000000000000000000000000000000000000000000004000000000000000000000000000000000000000000000000000000000000000284f12d5d6b380a839efc3428e7b7b4ebcfd04e5dd4f12d5d6b380a839efc3428e7b7b4ebcfd04e5dd000000000000000000000000000000000000000000000000",
        "nonce": "0x1095",
        "accessList": []
      },
      "additionalContracts": [],
      "isFixedGasLimit": false
    }
  ],
  "receipts": [],
  "libraries": [],
  "pending": [
    "0xf9c40fc14456d92fa69b6d376cfa3ba18eae751a0f692c36ca1ab0353c6d16e5"
  ],
  "path": "/Users/zeu/Documents/Work/StableBattle/stable-battle-foundry-contracts/broadcast/SetTrustedRemote.s.sol/5/run-latest.json",
  "returns": {},
  "timestamp": 1685598285,
  "chain": 5,
  "multi": false,
  "commit": "548270b"
}